{
  "_format": "hh-sol-artifact-1",
  "contractName": "BankAccount",
  "sourceName": "contracts/BankAccount.sol",
  "abi": [
    {
      "inputs": [],
      "stateMutability": "nonpayable",
      "type": "constructor"
    },
    {
      "inputs": [
        {
          "internalType": "address",
          "name": "",
          "type": "address"
        },
        {
          "internalType": "bytes32",
          "name": "",
          "type": "bytes32"
        }
      ],
      "name": "balances",
      "outputs": [
        {
          "internalType": "uint256",
          "name": "",
          "type": "uint256"
        }
      ],
      "stateMutability": "view",
      "type": "function"
    },
    {
      "inputs": [
        {
          "internalType": "uint256",
          "name": "amount",
          "type": "uint256"
        },
        {
          "internalType": "bytes32",
          "name": "symbol",
          "type": "bytes32"
        }
      ],
      "name": "depositTokens",
      "outputs": [],
      "stateMutability": "nonpayable",
      "type": "function"
    },
    {
      "inputs": [
        {
          "internalType": "bytes32",
          "name": "symbol",
          "type": "bytes32"
        }
      ],
      "name": "getTokenBalance",
      "outputs": [
        {
          "internalType": "uint256",
          "name": "",
          "type": "uint256"
        }
      ],
      "stateMutability": "view",
      "type": "function"
    },
    {
      "inputs": [],
      "name": "getWhitelistedSymbols",
      "outputs": [
        {
          "internalType": "bytes32[]",
          "name": "",
          "type": "bytes32[]"
        }
      ],
      "stateMutability": "view",
      "type": "function"
    },
    {
      "inputs": [
        {
          "internalType": "bytes32",
          "name": "symbol",
          "type": "bytes32"
        }
      ],
      "name": "getWhitelistedTokenAddress",
      "outputs": [
        {
          "internalType": "address",
          "name": "",
          "type": "address"
        }
      ],
      "stateMutability": "view",
      "type": "function"
    },
    {
      "inputs": [
        {
          "internalType": "bytes32",
          "name": "symbol",
          "type": "bytes32"
        },
        {
          "internalType": "address",
          "name": "tokenAddress",
          "type": "address"
        }
      ],
      "name": "whitelistToken",
      "outputs": [],
      "stateMutability": "nonpayable",
      "type": "function"
    },
    {
      "inputs": [
        {
          "internalType": "uint256",
          "name": "",
          "type": "uint256"
        }
      ],
      "name": "whitelistedSymbols",
      "outputs": [
        {
          "internalType": "bytes32",
          "name": "",
          "type": "bytes32"
        }
      ],
      "stateMutability": "view",
      "type": "function"
    },
    {
      "inputs": [
        {
          "internalType": "bytes32",
          "name": "",
          "type": "bytes32"
        }
      ],
      "name": "whitelistedTokens",
      "outputs": [
        {
          "internalType": "address",
          "name": "",
          "type": "address"
        }
      ],
      "stateMutability": "view",
      "type": "function"
    },
    {
      "inputs": [
        {
          "internalType": "uint256",
          "name": "amount",
          "type": "uint256"
        }
      ],
      "name": "withdrawEther",
      "outputs": [],
      "stateMutability": "nonpayable",
      "type": "function"
    },
    {
      "inputs": [
        {
          "internalType": "uint256",
          "name": "amount",
          "type": "uint256"
        },
        {
          "internalType": "bytes32",
          "name": "symbol",
          "type": "bytes32"
        }
      ],
      "name": "withdrawTokens",
      "outputs": [],
      "stateMutability": "nonpayable",
      "type": "function"
    },
    {
      "stateMutability": "payable",
      "type": "receive"
    }
  ],
  "bytecode": "0x608060405234801561001057600080fd5b50600080546001600160a01b03191633179055610834806100326000396000f3fe6080604052600436106100955760003560e01c806388db6ac61161005957806388db6ac6146101a55780638f97994b146101dd578063aa3d9a15146101fd578063d15b223e1461024b578063e88127881461026b57600080fd5b8063069fdaae146100d65780631f14df69146100f85780633bed33ce146101435780634762b976146101635780634b1e4aa51461018357600080fd5b366100d1573360009081526003602090815260408083206208ae8d60eb1b8452909152812080543492906100ca9084906106b5565b9091555050005b600080fd5b3480156100e257600080fd5b506100f66100f13660046106e9565b6102a1565b005b34801561010457600080fd5b50610130610113366004610715565b600360209081526000928352604080842090915290825290205481565b6040519081526020015b60405180910390f35b34801561014f57600080fd5b506100f661015e36600461073f565b61035d565b34801561016f57600080fd5b5061013061017e36600461073f565b610488565b34801561018f57600080fd5b506101986104a9565b60405161013a9190610758565b3480156101b157600080fd5b506101306101c036600461073f565b336000908152600360209081526040808320938352929052205490565b3480156101e957600080fd5b506100f66101f836600461079c565b610501565b34801561020957600080fd5b5061023361021836600461073f565b6002602052600090815260409020546001600160a01b031681565b6040516001600160a01b03909116815260200161013a565b34801561025757600080fd5b506100f661026636600461079c565b610626565b34801561027757600080fd5b5061023361028636600461073f565b6000908152600260205260409020546001600160a01b031690565b6000546001600160a01b031633146103005760405162461bcd60e51b815260206004820152601c60248201527f546869732066756e6374696f6e206973206e6f74207075626c6963210000000060448201526064015b60405180910390fd5b600180548082019091557fb10e2d527612073b26eecdfd717e6a320cf44b4afac2b0732d9fcbe2b7fa0cf60182905560009182526002602052604090912080546001600160a01b0319166001600160a01b03909216919091179055565b3360009081526003602090815260408083206208ae8d60eb1b84529091529020548111156103c25760405162461bcd60e51b8152602060048201526012602482015271496e73756666696369656e742066756e647360701b60448201526064016102f7565b3360009081526003602090815260408083206208ae8d60eb1b8452909152812080548392906103f29084906107be565b9091555050604051600090339083908381818185875af1925050503d8060008114610439576040519150601f19603f3d011682016040523d82523d6000602084013e61043e565b606091505b50509050806104845760405162461bcd60e51b815260206004820152601260248201527108cc2d2d8cac840e8de40e6cadcc8408aa8960731b60448201526064016102f7565b5050565b6001818154811061049857600080fd5b600091825260209091200154905081565b606060018054806020026020016040519081016040528092919081815260200182805480156104f757602002820191906000526020600020905b8154815260200190600101908083116104e3575b5050505050905090565b3360009081526003602090815260408083208484529091529020548211156105605760405162461bcd60e51b8152602060048201526012602482015271496e73756666696369656e742066756e647360701b60448201526064016102f7565b3360009081526003602090815260408083208484529091528120805484929061058a9084906107be565b90915550506000818152600260205260409081902054905163a9059cbb60e01b8152336004820152602481018490526001600160a01b039091169063a9059cbb906044015b602060405180830381600087803b1580156105e957600080fd5b505af11580156105fd573d6000803e3d6000fd5b505050506040513d601f19601f8201168201806040525081019061062191906107d5565b505050565b336000908152600360209081526040808320848452909152812080548492906106509084906106b5565b9091555050600081815260026020526040908190205490516323b872dd60e01b8152336004820152306024820152604481018490526001600160a01b03909116906323b872dd906064016105cf565b634e487b7160e01b600052601160045260246000fd5b600082198211156106c8576106c861069f565b500190565b80356001600160a01b03811681146106e457600080fd5b919050565b600080604083850312156106fc57600080fd5b8235915061070c602084016106cd565b90509250929050565b6000806040838503121561072857600080fd5b610731836106cd565b946020939093013593505050565b60006020828403121561075157600080fd5b5035919050565b6020808252825182820181905260009190848201906040850190845b8181101561079057835183529284019291840191600101610774565b50909695505050505050565b600080604083850312156107af57600080fd5b50508035926020909101359150565b6000828210156107d0576107d061069f565b500390565b6000602082840312156107e757600080fd5b815180151581146107f757600080fd5b939250505056fea264697066735822122035afb589e3df1f1c04667703439520842604edb8c48ca758f6c1d985ff8fa1f964736f6c63430008090033",
  "linkReferences": {},
  "deployedLinkReferences": {}
}