{
  "_format": "hh-sol-artifact-1",
  "contractName": "BankAccount",
  "sourceName": "contracts/BankAccount.sol",
  "abi": [
    {
      "inputs": [],
      "stateMutability": "nonpayable",
      "type": "constructor"
    },
    {
      "anonymous": false,
      "inputs": [
        {
          "indexed": false,
          "internalType": "address",
          "name": "_address",
          "type": "address"
        },
        {
          "indexed": false,
          "internalType": "uint256",
          "name": "_amount",
          "type": "uint256"
        }
      ],
      "name": "LogDeposit",
      "type": "event"
    },
    {
      "anonymous": false,
      "inputs": [
        {
          "indexed": false,
          "internalType": "address",
          "name": "_address",
          "type": "address"
        },
        {
          "indexed": false,
          "internalType": "uint256",
          "name": "_amount",
          "type": "uint256"
        }
      ],
      "name": "LogWithdrawal",
      "type": "event"
    },
    {
      "inputs": [
        {
          "internalType": "address",
          "name": "",
          "type": "address"
        },
        {
          "internalType": "bytes32",
          "name": "",
          "type": "bytes32"
        }
      ],
      "name": "balances",
      "outputs": [
        {
          "internalType": "uint256",
          "name": "",
          "type": "uint256"
        }
      ],
      "stateMutability": "view",
      "type": "function"
    },
    {
      "inputs": [
        {
          "internalType": "uint256",
          "name": "_amount",
          "type": "uint256"
        },
        {
          "internalType": "bytes32",
          "name": "_symbol",
          "type": "bytes32"
        }
      ],
      "name": "depositTokens",
      "outputs": [],
      "stateMutability": "nonpayable",
      "type": "function"
    },
    {
      "inputs": [
        {
          "internalType": "bytes32",
          "name": "_symbol",
          "type": "bytes32"
        }
      ],
      "name": "getTokenBalance",
      "outputs": [
        {
          "internalType": "uint256",
          "name": "",
          "type": "uint256"
        }
      ],
      "stateMutability": "view",
      "type": "function"
    },
    {
      "inputs": [],
      "name": "getWhitelistedSymbols",
      "outputs": [
        {
          "internalType": "bytes32[]",
          "name": "",
          "type": "bytes32[]"
        }
      ],
      "stateMutability": "view",
      "type": "function"
    },
    {
      "inputs": [
        {
          "internalType": "bytes32",
          "name": "_symbol",
          "type": "bytes32"
        }
      ],
      "name": "getWhitelistedTokenAddress",
      "outputs": [
        {
          "internalType": "address",
          "name": "",
          "type": "address"
        }
      ],
      "stateMutability": "view",
      "type": "function"
    },
    {
      "inputs": [
        {
          "internalType": "bytes32",
          "name": "_symbol",
          "type": "bytes32"
        },
        {
          "internalType": "address",
          "name": "_tokenAddress",
          "type": "address"
        }
      ],
      "name": "whitelistToken",
      "outputs": [],
      "stateMutability": "nonpayable",
      "type": "function"
    },
    {
      "inputs": [
        {
          "internalType": "uint256",
          "name": "",
          "type": "uint256"
        }
      ],
      "name": "whitelistedSymbols",
      "outputs": [
        {
          "internalType": "bytes32",
          "name": "",
          "type": "bytes32"
        }
      ],
      "stateMutability": "view",
      "type": "function"
    },
    {
      "inputs": [
        {
          "internalType": "bytes32",
          "name": "",
          "type": "bytes32"
        }
      ],
      "name": "whitelistedTokens",
      "outputs": [
        {
          "internalType": "address",
          "name": "",
          "type": "address"
        }
      ],
      "stateMutability": "view",
      "type": "function"
    },
    {
      "inputs": [
        {
          "internalType": "uint256",
          "name": "_withdrawAmount",
          "type": "uint256"
        }
      ],
      "name": "withdrawEther",
      "outputs": [],
      "stateMutability": "nonpayable",
      "type": "function"
    },
    {
      "inputs": [
        {
          "internalType": "uint256",
          "name": "_withdrawAmount",
          "type": "uint256"
        },
        {
          "internalType": "bytes32",
          "name": "_symbol",
          "type": "bytes32"
        }
      ],
      "name": "withdrawTokens",
      "outputs": [],
      "stateMutability": "nonpayable",
      "type": "function"
    },
    {
      "stateMutability": "payable",
      "type": "receive"
    }
  ],
  "bytecode": "0x608060405234801561001057600080fd5b50600080546001600160a01b03191633179055610923806100326000396000f3fe6080604052600436106100955760003560e01c806388db6ac61161005957806388db6ac6146101a55780638f97994b146101dd578063aa3d9a15146101fd578063d15b223e1461024b578063e88127881461026b57600080fd5b8063069fdaae146100d65780631f14df69146100f85780633bed33ce146101435780634762b976146101635780634b1e4aa51461018357600080fd5b366100d1573360009081526003602090815260408083206208ae8d60eb1b8452909152812080543492906100ca9084906107a4565b9091555050005b600080fd5b3480156100e257600080fd5b506100f66100f13660046107d8565b6102a1565b005b34801561010457600080fd5b50610130610113366004610804565b600360209081526000928352604080842090915290825290205481565b6040519081526020015b60405180910390f35b34801561014f57600080fd5b506100f661015e36600461082e565b61035d565b34801561016f57600080fd5b5061013061017e36600461082e565b6104c2565b34801561018f57600080fd5b506101986104e3565b60405161013a9190610847565b3480156101b157600080fd5b506101306101c036600461082e565b336000908152600360209081526040808320938352929052205490565b3480156101e957600080fd5b506100f66101f836600461088b565b61053b565b34801561020957600080fd5b5061023361021836600461082e565b6002602052600090815260409020546001600160a01b031681565b6040516001600160a01b03909116815260200161013a565b34801561025757600080fd5b506100f661026636600461088b565b610691565b34801561027757600080fd5b5061023361028636600461082e565b6000908152600260205260409020546001600160a01b031690565b6000546001600160a01b031633146103005760405162461bcd60e51b815260206004820152601c60248201527f546869732066756e6374696f6e206973206e6f74207075626c6963210000000060448201526064015b60405180910390fd5b600180548082019091557fb10e2d527612073b26eecdfd717e6a320cf44b4afac2b0732d9fcbe2b7fa0cf60182905560009182526002602052604090912080546001600160a01b0319166001600160a01b03909216919091179055565b3360009081526003602090815260408083206208ae8d60eb1b84529091529020548111156103c25760405162461bcd60e51b8152602060048201526012602482015271496e73756666696369656e742066756e647360701b60448201526064016102f7565b3360009081526003602090815260408083206208ae8d60eb1b8452909152812080548392906103f29084906108ad565b9091555050604051600090339083908381818185875af1925050503d8060008114610439576040519150601f19603f3d011682016040523d82523d6000602084013e61043e565b606091505b50509050806104845760405162461bcd60e51b815260206004820152601260248201527108cc2d2d8cac840e8de40e6cadcc8408aa8960731b60448201526064016102f7565b60408051338152602081018490527fb4214c8c54fc7442f36d3682f59aebaf09358a4431835b30efb29d52cf9e1e9191015b60405180910390a15050565b600181815481106104d257600080fd5b600091825260209091200154905081565b6060600180548060200260200160405190810160405280929190818152602001828054801561053157602002820191906000526020600020905b81548152602001906001019080831161051d575b5050505050905090565b33600090815260036020908152604080832084845290915290205482111561059a5760405162461bcd60e51b8152602060048201526012602482015271496e73756666696369656e742066756e647360701b60448201526064016102f7565b336000908152600360209081526040808320848452909152812080548492906105c49084906108ad565b90915550506000818152600260205260409081902054905163a9059cbb60e01b8152336004820152602481018490526001600160a01b039091169063a9059cbb90604401602060405180830381600087803b15801561062257600080fd5b505af1158015610636573d6000803e3d6000fd5b505050506040513d601f19601f8201168201806040525081019061065a91906108c4565b5060408051338152602081018490527fb4214c8c54fc7442f36d3682f59aebaf09358a4431835b30efb29d52cf9e1e9191016104b6565b336000908152600360209081526040808320848452909152812080548492906106bb9084906107a4565b9091555050600081815260026020526040908190205490516323b872dd60e01b8152336004820152306024820152604481018490526001600160a01b03909116906323b872dd90606401602060405180830381600087803b15801561071f57600080fd5b505af1158015610733573d6000803e3d6000fd5b505050506040513d601f19601f8201168201806040525081019061075791906108c4565b5060408051338152602081018490527f1b851e1031ef35a238e6c67d0c7991162390df915f70eaf9098dbf0b175a619891016104b6565b634e487b7160e01b600052601160045260246000fd5b600082198211156107b7576107b761078e565b500190565b80356001600160a01b03811681146107d357600080fd5b919050565b600080604083850312156107eb57600080fd5b823591506107fb602084016107bc565b90509250929050565b6000806040838503121561081757600080fd5b610820836107bc565b946020939093013593505050565b60006020828403121561084057600080fd5b5035919050565b6020808252825182820181905260009190848201906040850190845b8181101561087f57835183529284019291840191600101610863565b50909695505050505050565b6000806040838503121561089e57600080fd5b50508035926020909101359150565b6000828210156108bf576108bf61078e565b500390565b6000602082840312156108d657600080fd5b815180151581146108e657600080fd5b939250505056fea26469706673582212203752869c262b075eb68c5b6784195b916907c8c489855a0cc458d672037909fa64736f6c63430008090033",
  "linkReferences": {},
  "deployedLinkReferences": {}
}